{
  "contractName": "Decentral_bank",
  "abi": [
    {
      "inputs": [
        {
          "internalType": "contract Reward",
          "name": "_reward",
          "type": "address"
        },
        {
          "internalType": "contract Tether",
          "name": "_tether",
          "type": "address"
        }
      ],
      "stateMutability": "nonpayable",
      "type": "constructor"
    },
    {
      "inputs": [
        {
          "internalType": "address",
          "name": "",
          "type": "address"
        }
      ],
      "name": "debt",
      "outputs": [
        {
          "internalType": "uint256",
          "name": "",
          "type": "uint256"
        }
      ],
      "stateMutability": "view",
      "type": "function",
      "constant": true
    },
    {
      "inputs": [
        {
          "internalType": "address",
          "name": "",
          "type": "address"
        }
      ],
      "name": "debt_divident",
      "outputs": [
        {
          "internalType": "uint256",
          "name": "",
          "type": "uint256"
        }
      ],
      "stateMutability": "view",
      "type": "function",
      "constant": true
    },
    {
      "inputs": [
        {
          "internalType": "address",
          "name": "",
          "type": "address"
        }
      ],
      "name": "hasStaking",
      "outputs": [
        {
          "internalType": "bool",
          "name": "",
          "type": "bool"
        }
      ],
      "stateMutability": "view",
      "type": "function",
      "constant": true
    },
    {
      "inputs": [
        {
          "internalType": "address",
          "name": "",
          "type": "address"
        }
      ],
      "name": "isStaked",
      "outputs": [
        {
          "internalType": "bool",
          "name": "",
          "type": "bool"
        }
      ],
      "stateMutability": "view",
      "type": "function",
      "constant": true
    },
    {
      "inputs": [],
      "name": "name",
      "outputs": [
        {
          "internalType": "string",
          "name": "",
          "type": "string"
        }
      ],
      "stateMutability": "view",
      "type": "function",
      "constant": true
    },
    {
      "inputs": [],
      "name": "owner",
      "outputs": [
        {
          "internalType": "address",
          "name": "",
          "type": "address"
        }
      ],
      "stateMutability": "view",
      "type": "function",
      "constant": true
    },
    {
      "inputs": [],
      "name": "reward",
      "outputs": [
        {
          "internalType": "contract Reward",
          "name": "",
          "type": "address"
        }
      ],
      "stateMutability": "view",
      "type": "function",
      "constant": true
    },
    {
      "inputs": [
        {
          "internalType": "address",
          "name": "",
          "type": "address"
        }
      ],
      "name": "stake_reward",
      "outputs": [
        {
          "internalType": "uint256",
          "name": "",
          "type": "uint256"
        }
      ],
      "stateMutability": "view",
      "type": "function",
      "constant": true
    },
    {
      "inputs": [
        {
          "internalType": "uint256",
          "name": "",
          "type": "uint256"
        }
      ],
      "name": "stakers",
      "outputs": [
        {
          "internalType": "address",
          "name": "",
          "type": "address"
        }
      ],
      "stateMutability": "view",
      "type": "function",
      "constant": true
    },
    {
      "inputs": [
        {
          "internalType": "address",
          "name": "",
          "type": "address"
        }
      ],
      "name": "stakingBalance",
      "outputs": [
        {
          "internalType": "uint256",
          "name": "",
          "type": "uint256"
        }
      ],
      "stateMutability": "view",
      "type": "function",
      "constant": true
    },
    {
      "inputs": [],
      "name": "tether",
      "outputs": [
        {
          "internalType": "contract Tether",
          "name": "",
          "type": "address"
        }
      ],
      "stateMutability": "view",
      "type": "function",
      "constant": true
    },
    {
      "inputs": [
        {
          "internalType": "uint256",
          "name": "_amount",
          "type": "uint256"
        }
      ],
      "name": "Deposit",
      "outputs": [],
      "stateMutability": "nonpayable",
      "type": "function"
    },
    {
      "inputs": [],
      "name": "issuedToken",
      "outputs": [],
      "stateMutability": "nonpayable",
      "type": "function"
    },
    {
      "inputs": [
        {
          "internalType": "uint256",
          "name": "_amount",
          "type": "uint256"
        }
      ],
      "name": "unstakeToken",
      "outputs": [],
      "stateMutability": "nonpayable",
      "type": "function"
    },
    {
      "inputs": [
        {
          "internalType": "uint256",
          "name": "_amount",
          "type": "uint256"
        }
      ],
      "name": "apply_debt",
      "outputs": [],
      "stateMutability": "nonpayable",
      "type": "function"
    }
  ],
  "bytecode": "0x60806040526040518060400160405280600d81526020017f446563656e7472616c42616e6b00000000000000000000000000000000000000815250600090816200004a9190620003c3565b503480156200005857600080fd5b5060405162001a5138038062001a5183398181016040528101906200007e91906200056d565b81600360006101000a81548173ffffffffffffffffffffffffffffffffffffffff021916908373ffffffffffffffffffffffffffffffffffffffff16021790555080600260006101000a81548173ffffffffffffffffffffffffffffffffffffffff021916908373ffffffffffffffffffffffffffffffffffffffff16021790555033600160006101000a81548173ffffffffffffffffffffffffffffffffffffffff021916908373ffffffffffffffffffffffffffffffffffffffff1602179055505050620005b4565b600081519050919050565b7f4e487b7100000000000000000000000000000000000000000000000000000000600052604160045260246000fd5b7f4e487b7100000000000000000000000000000000000000000000000000000000600052602260045260246000fd5b60006002820490506001821680620001cb57607f821691505b602082108103620001e157620001e062000183565b5b50919050565b60008190508160005260206000209050919050565b60006020601f8301049050919050565b600082821b905092915050565b6000600883026200024b7fffffffffffffffffffffffffffffffffffffffffffffffffffffffffffffffff826200020c565b6200025786836200020c565b95508019841693508086168417925050509392505050565b6000819050919050565b6000819050919050565b6000620002a46200029e62000298846200026f565b62000279565b6200026f565b9050919050565b6000819050919050565b620002c08362000283565b620002d8620002cf82620002ab565b84845462000219565b825550505050565b600090565b620002ef620002e0565b620002fc818484620002b5565b505050565b5b81811015620003245762000318600082620002e5565b60018101905062000302565b5050565b601f82111562000373576200033d81620001e7565b6200034884620001fc565b8101602085101562000358578190505b620003706200036785620001fc565b83018262000301565b50505b505050565b600082821c905092915050565b6000620003986000198460080262000378565b1980831691505092915050565b6000620003b3838362000385565b9150826002028217905092915050565b620003ce8262000149565b67ffffffffffffffff811115620003ea57620003e962000154565b5b620003f68254620001b2565b6200040382828562000328565b600060209050601f8311600181146200043b576000841562000426578287015190505b620004328582620003a5565b865550620004a2565b601f1984166200044b86620001e7565b60005b8281101562000475578489015182556001820191506020850194506020810190506200044e565b8683101562000495578489015162000491601f89168262000385565b8355505b6001600288020188555050505b505050505050565b600080fd5b600073ffffffffffffffffffffffffffffffffffffffff82169050919050565b6000620004dc82620004af565b9050919050565b6000620004f082620004cf565b9050919050565b6200050281620004e3565b81146200050e57600080fd5b50565b6000815190506200052281620004f7565b92915050565b60006200053582620004cf565b9050919050565b620005478162000528565b81146200055357600080fd5b50565b60008151905062000567816200053c565b92915050565b60008060408385031215620005875762000586620004aa565b5b6000620005978582860162000511565b9250506020620005aa8582860162000556565b9150509250929050565b61148d80620005c46000396000f3fe608060405234801561001057600080fd5b50600436106100f55760003560e01c80635efc071a116100975780639b6c56ec116100665780639b6c56ec14610260578063bf92b4ef14610290578063c6dfe327146102c0578063fd5e6dd1146102f0576100f5565b80635efc071a146101d85780636177fd18146101f65780638da5cb5b1461022657806399d27bab14610244576100f5565b80632cfb6688116100d35780632cfb668814610166578063417d845c1461018257806345bc78ab1461018c5780634d6ce1e5146101bc576100f5565b806302d1eaf5146100fa57806306fdde031461012a578063228cb73314610148575b600080fd5b610114600480360381019061010f9190610eb7565b610320565b6040516101219190610efd565b60405180910390f35b610132610338565b60405161013f9190610fb1565b60405180910390f35b6101506103c6565b60405161015d9190611032565b60405180910390f35b610180600480360381019061017b9190611079565b6103ec565b005b61018a61062a565b005b6101a660048036038101906101a19190610eb7565b6107ed565b6040516101b39190610efd565b60405180910390f35b6101d660048036038101906101d19190611079565b610805565b005b6101e0610bb2565b6040516101ed91906110c7565b60405180910390f35b610210600480360381019061020b9190610eb7565b610bd8565b60405161021d91906110fd565b60405180910390f35b61022e610bf8565b60405161023b9190611127565b60405180910390f35b61025e60048036038101906102599190611079565b610c1e565b005b61027a60048036038101906102759190610eb7565b610dc5565b6040516102879190610efd565b60405180910390f35b6102aa60048036038101906102a59190610eb7565b610ddd565b6040516102b79190610efd565b60405180910390f35b6102da60048036038101906102d59190610eb7565b610df5565b6040516102e791906110fd565b60405180910390f35b61030a60048036038101906103059190611079565b610e15565b6040516103179190611127565b60405180910390f35b600a6020528060005260406000206000915090505481565b6000805461034590611171565b80601f016020809104026020016040519081016040528092919081815260200182805461037190611171565b80156103be5780601f10610393576101008083540402835291602001916103be565b820191906000526020600020905b8154815290600101906020018083116103a157829003601f168201915b505050505081565b600360009054906101000a900473ffffffffffffffffffffffffffffffffffffffff1681565b80600560003373ffffffffffffffffffffffffffffffffffffffff1673ffffffffffffffffffffffffffffffffffffffff16815260200190815260200160002054101561043857600080fd5b80600560003373ffffffffffffffffffffffffffffffffffffffff1673ffffffffffffffffffffffffffffffffffffffff168152602001908152602001600020600082825461048791906111d1565b92505081905550600260009054906101000a900473ffffffffffffffffffffffffffffffffffffffff1673ffffffffffffffffffffffffffffffffffffffff1663a9059cbb33836040518363ffffffff1660e01b81526004016104eb929190611205565b6020604051808303816000875af115801561050a573d6000803e3d6000fd5b505050506040513d601f19601f8201168201806040525081019061052e919061125a565b506000600560003373ffffffffffffffffffffffffffffffffffffffff1673ffffffffffffffffffffffffffffffffffffffff1681526020019081526020016000205403610627576000600760003373ffffffffffffffffffffffffffffffffffffffff1673ffffffffffffffffffffffffffffffffffffffff16815260200190815260200160002060006101000a81548160ff0219169083151502179055506000600660003373ffffffffffffffffffffffffffffffffffffffff1673ffffffffffffffffffffffffffffffffffffffff16815260200190815260200160002060006101000a81548160ff0219169083151502179055505b50565b600160009054906101000a900473ffffffffffffffffffffffffffffffffffffffff1673ffffffffffffffffffffffffffffffffffffffff163373ffffffffffffffffffffffffffffffffffffffff161461068457600080fd5b60005b6004805490508110156107ea576000600482815481106106aa576106a9611287565b5b9060005260206000200160009054906101000a900473ffffffffffffffffffffffffffffffffffffffff1690506000600a600560008473ffffffffffffffffffffffffffffffffffffffff1673ffffffffffffffffffffffffffffffffffffffff1681526020019081526020016000205461072591906112e5565b90506000811161073457600080fd5b600360009054906101000a900473ffffffffffffffffffffffffffffffffffffffff1673ffffffffffffffffffffffffffffffffffffffff1663a9059cbb83836040518363ffffffff1660e01b8152600401610791929190611205565b6020604051808303816000875af11580156107b0573d6000803e3d6000fd5b505050506040513d601f19601f820116820180604052508101906107d4919061125a565b50505080806107e290611316565b915050610687565b50565b60056020528060005260406000206000915090505481565b60008111610848576040517f08c379a000000000000000000000000000000000000000000000000000000000815260040161083f906113aa565b60405180910390fd5b600260009054906101000a900473ffffffffffffffffffffffffffffffffffffffff1673ffffffffffffffffffffffffffffffffffffffff166323b872dd3330846040518463ffffffff1660e01b81526004016108a7939291906113ca565b6020604051808303816000875af11580156108c6573d6000803e3d6000fd5b505050506040513d601f19601f820116820180604052508101906108ea919061125a565b5080600560003373ffffffffffffffffffffffffffffffffffffffff1673ffffffffffffffffffffffffffffffffffffffff168152602001908152602001600020600082825461093a9190611401565b925050819055506000600a8261095091906112e5565b905080600860003373ffffffffffffffffffffffffffffffffffffffff1673ffffffffffffffffffffffffffffffffffffffff16815260200190815260200160002060008282546109a19190611401565b92505081905550600360009054906101000a900473ffffffffffffffffffffffffffffffffffffffff1673ffffffffffffffffffffffffffffffffffffffff1663a9059cbb33836040518363ffffffff1660e01b8152600401610a05929190611205565b6020604051808303816000875af1158015610a24573d6000803e3d6000fd5b505050506040513d601f19601f82011682018060405250810190610a48919061125a565b50600660003373ffffffffffffffffffffffffffffffffffffffff1673ffffffffffffffffffffffffffffffffffffffff16815260200190815260200160002060009054906101000a900460ff16610afe576004339080600181540180825580915050600190039060005260206000200160009091909190916101000a81548173ffffffffffffffffffffffffffffffffffffffff021916908373ffffffffffffffffffffffffffffffffffffffff1602179055505b6001600660003373ffffffffffffffffffffffffffffffffffffffff1673ffffffffffffffffffffffffffffffffffffffff16815260200190815260200160002060006101000a81548160ff0219169083151502179055506001600760003373ffffffffffffffffffffffffffffffffffffffff1673ffffffffffffffffffffffffffffffffffffffff16815260200190815260200160002060006101000a81548160ff0219169083151502179055505050565b600260009054906101000a900473ffffffffffffffffffffffffffffffffffffffff1681565b60076020528060005260406000206000915054906101000a900460ff1681565b600160009054906101000a900473ffffffffffffffffffffffffffffffffffffffff1681565b60008111610c61576040517f08c379a0000000000000000000000000000000000000000000000000000000008152600401610c58906113aa565b60405180910390fd5b600260009054906101000a900473ffffffffffffffffffffffffffffffffffffffff1673ffffffffffffffffffffffffffffffffffffffff16638636f6413033846040518463ffffffff1660e01b8152600401610cc0939291906113ca565b6020604051808303816000875af1158015610cdf573d6000803e3d6000fd5b505050506040513d601f19601f82011682018060405250810190610d03919061125a565b506000600582610d1391906112e5565b905080600a60003373ffffffffffffffffffffffffffffffffffffffff1673ffffffffffffffffffffffffffffffffffffffff1681526020019081526020016000206000828254610d649190611401565b9250508190555081600960003373ffffffffffffffffffffffffffffffffffffffff1673ffffffffffffffffffffffffffffffffffffffff1681526020019081526020016000206000828254610dba9190611401565b925050819055505050565b60096020528060005260406000206000915090505481565b60086020528060005260406000206000915090505481565b60066020528060005260406000206000915054906101000a900460ff1681565b60048181548110610e2557600080fd5b906000526020600020016000915054906101000a900473ffffffffffffffffffffffffffffffffffffffff1681565b600080fd5b600073ffffffffffffffffffffffffffffffffffffffff82169050919050565b6000610e8482610e59565b9050919050565b610e9481610e79565b8114610e9f57600080fd5b50565b600081359050610eb181610e8b565b92915050565b600060208284031215610ecd57610ecc610e54565b5b6000610edb84828501610ea2565b91505092915050565b6000819050919050565b610ef781610ee4565b82525050565b6000602082019050610f126000830184610eee565b92915050565b600081519050919050565b600082825260208201905092915050565b60005b83811015610f52578082015181840152602081019050610f37565b83811115610f61576000848401525b50505050565b6000601f19601f8301169050919050565b6000610f8382610f18565b610f8d8185610f23565b9350610f9d818560208601610f34565b610fa681610f67565b840191505092915050565b60006020820190508181036000830152610fcb8184610f78565b905092915050565b6000819050919050565b6000610ff8610ff3610fee84610e59565b610fd3565b610e59565b9050919050565b600061100a82610fdd565b9050919050565b600061101c82610fff565b9050919050565b61102c81611011565b82525050565b60006020820190506110476000830184611023565b92915050565b61105681610ee4565b811461106157600080fd5b50565b6000813590506110738161104d565b92915050565b60006020828403121561108f5761108e610e54565b5b600061109d84828501611064565b91505092915050565b60006110b182610fff565b9050919050565b6110c1816110a6565b82525050565b60006020820190506110dc60008301846110b8565b92915050565b60008115159050919050565b6110f7816110e2565b82525050565b600060208201905061111260008301846110ee565b92915050565b61112181610e79565b82525050565b600060208201905061113c6000830184611118565b92915050565b7f4e487b7100000000000000000000000000000000000000000000000000000000600052602260045260246000fd5b6000600282049050600182168061118957607f821691505b60208210810361119c5761119b611142565b5b50919050565b7f4e487b7100000000000000000000000000000000000000000000000000000000600052601160045260246000fd5b60006111dc82610ee4565b91506111e783610ee4565b9250828210156111fa576111f96111a2565b5b828203905092915050565b600060408201905061121a6000830185611118565b6112276020830184610eee565b9392505050565b611237816110e2565b811461124257600080fd5b50565b6000815190506112548161122e565b92915050565b6000602082840312156112705761126f610e54565b5b600061127e84828501611245565b91505092915050565b7f4e487b7100000000000000000000000000000000000000000000000000000000600052603260045260246000fd5b7f4e487b7100000000000000000000000000000000000000000000000000000000600052601260045260246000fd5b60006112f082610ee4565b91506112fb83610ee4565b92508261130b5761130a6112b6565b5b828204905092915050565b600061132182610ee4565b91507fffffffffffffffffffffffffffffffffffffffffffffffffffffffffffffffff8203611353576113526111a2565b5b600182019050919050565b7f616d6f756e742063616e6e6f74206265206c657373207468616e207a65726f00600082015250565b6000611394601f83610f23565b915061139f8261135e565b602082019050919050565b600060208201905081810360008301526113c381611387565b9050919050565b60006060820190506113df6000830186611118565b6113ec6020830185611118565b6113f96040830184610eee565b949350505050565b600061140c82610ee4565b915061141783610ee4565b9250827fffffffffffffffffffffffffffffffffffffffffffffffffffffffffffffffff0382111561144c5761144b6111a2565b5b82820190509291505056fea264697066735822122072270e286e002aedc760d1331d100f28d86f10e22083ccfd49f7b17366507c1364736f6c634300080f0033",
  "immutableReferences": {},
  "source": "// SPDX-License-Identifier: MIT\r\npragma solidity >=0.4.22 <0.9.0;\r\n\r\nimport \"./Tether.sol\";\r\nimport \"./Reward.sol\";\r\n\r\ncontract Decentral_bank {\r\n    string public name = \"DecentralBank\";\r\n    address public owner;\r\n    Tether public tether;\r\n    Reward public reward;\r\n\r\n    address[] public stakers;\r\n\r\n    constructor(Reward _reward, Tether _tether)  {\r\n        reward = _reward;\r\n        tether = _tether;\r\n        owner = msg.sender;\r\n    }\r\n\r\n    mapping (address => uint) public stakingBalance;\r\n    mapping (address => bool) public hasStaking;\r\n    mapping (address => bool) public isStaked;  \r\n    mapping (address => uint) public stake_reward;\r\n    mapping (address => uint) public debt;\r\n    mapping (address => uint) public debt_divident;\r\n\r\n    function Deposit (uint _amount) public {\r\n        require(_amount > 0, 'amount cannot be less than zero');\r\n        tether.transferFrom(msg.sender, address(this), _amount);\r\n        stakingBalance[msg.sender] += _amount;\r\n        uint divident = _amount / 10;\r\n        stake_reward[msg.sender] += divident;\r\n        reward.transfer(msg.sender, divident);\r\n\r\n        if(!hasStaking[msg.sender]) {\r\n            stakers.push(msg.sender);\r\n        }\r\n\r\n        hasStaking[msg.sender] = true;\r\n        isStaked[msg.sender] = true;\r\n    }\r\n\r\n    function issuedToken () public {\r\n        require(msg.sender == owner);\r\n        for (uint i = 0; i < stakers.length; i++) {\r\n            address account = stakers[i];\r\n            uint balance = stakingBalance[account] / 10;\r\n            require(balance > 0);\r\n            reward.transfer(account, balance);\r\n        }\r\n    }\r\n\r\n    function unstakeToken (uint _amount) public {\r\n        require(stakingBalance[msg.sender] >= _amount);\r\n        stakingBalance[msg.sender] -= _amount;\r\n        tether.transfer(msg.sender, _amount);\r\n        if (stakingBalance[msg.sender] == 0){\r\n             isStaked[msg.sender] = false;\r\n             hasStaking[msg.sender] = false;\r\n        }\r\n\r\n    }\r\n\r\n    function apply_debt (uint _amount) public {\r\n        require(_amount > 0, 'amount cannot be less than zero');\r\n        tether.transferFrom_debt(address(this), msg.sender, _amount);\r\n        uint pay = _amount/5;\r\n        debt_divident[msg.sender] += pay;\r\n        debt[msg.sender] += _amount;\r\n    }\r\n}",
  "sourcePath": "C:\\Users\\User\\Desktop\\New folder (3)\\contracts\\Decentral_bank.sol",
  "compiler": {
    "name": "solc",
    "version": "0.8.15+commit.e14f2714.Emscripten.clang"
  },
  "schemaVersion": "3.4.8",
  "updatedAt": "2022-08-16T13:55:38.132Z",
  "networkType": "ethereum",
  "devdoc": {
    "kind": "dev",
    "methods": {},
    "version": 1
  },
  "userdoc": {
    "kind": "user",
    "methods": {},
    "version": 1
  }
}