{
  "contractName": "Reward",
  "abi": [
    {
      "inputs": [],
      "stateMutability": "nonpayable",
      "type": "constructor"
    },
    {
      "anonymous": false,
      "inputs": [
        {
          "indexed": false,
          "internalType": "address",
          "name": "_owner",
          "type": "address"
        },
        {
          "indexed": false,
          "internalType": "address",
          "name": "_spender",
          "type": "address"
        },
        {
          "indexed": false,
          "internalType": "uint256",
          "name": "_value",
          "type": "uint256"
        }
      ],
      "name": "Approve",
      "type": "event"
    },
    {
      "anonymous": false,
      "inputs": [
        {
          "indexed": true,
          "internalType": "address",
          "name": "_from",
          "type": "address"
        },
        {
          "indexed": true,
          "internalType": "address",
          "name": "_to",
          "type": "address"
        },
        {
          "indexed": false,
          "internalType": "uint256",
          "name": "value",
          "type": "uint256"
        }
      ],
      "name": "Transfer",
      "type": "event"
    },
    {
      "inputs": [
        {
          "internalType": "address",
          "name": "",
          "type": "address"
        },
        {
          "internalType": "address",
          "name": "",
          "type": "address"
        }
      ],
      "name": "allowance",
      "outputs": [
        {
          "internalType": "uint256",
          "name": "",
          "type": "uint256"
        }
      ],
      "stateMutability": "view",
      "type": "function",
      "constant": true
    },
    {
      "inputs": [],
      "name": "amount",
      "outputs": [
        {
          "internalType": "uint256",
          "name": "",
          "type": "uint256"
        }
      ],
      "stateMutability": "view",
      "type": "function",
      "constant": true
    },
    {
      "inputs": [
        {
          "internalType": "address",
          "name": "",
          "type": "address"
        }
      ],
      "name": "balanceOf",
      "outputs": [
        {
          "internalType": "uint256",
          "name": "",
          "type": "uint256"
        }
      ],
      "stateMutability": "view",
      "type": "function",
      "constant": true
    },
    {
      "inputs": [],
      "name": "decimal",
      "outputs": [
        {
          "internalType": "uint256",
          "name": "",
          "type": "uint256"
        }
      ],
      "stateMutability": "view",
      "type": "function",
      "constant": true
    },
    {
      "inputs": [],
      "name": "name",
      "outputs": [
        {
          "internalType": "string",
          "name": "",
          "type": "string"
        }
      ],
      "stateMutability": "view",
      "type": "function",
      "constant": true
    },
    {
      "inputs": [],
      "name": "symbol",
      "outputs": [
        {
          "internalType": "string",
          "name": "",
          "type": "string"
        }
      ],
      "stateMutability": "view",
      "type": "function",
      "constant": true
    },
    {
      "inputs": [
        {
          "internalType": "address",
          "name": "_to",
          "type": "address"
        },
        {
          "internalType": "uint256",
          "name": "_value",
          "type": "uint256"
        }
      ],
      "name": "transfer",
      "outputs": [
        {
          "internalType": "bool",
          "name": "success",
          "type": "bool"
        }
      ],
      "stateMutability": "nonpayable",
      "type": "function"
    },
    {
      "inputs": [
        {
          "internalType": "address",
          "name": "_from",
          "type": "address"
        },
        {
          "internalType": "uint256",
          "name": "_value",
          "type": "uint256"
        }
      ],
      "name": "approval",
      "outputs": [
        {
          "internalType": "bool",
          "name": "success",
          "type": "bool"
        }
      ],
      "stateMutability": "nonpayable",
      "type": "function"
    },
    {
      "inputs": [
        {
          "internalType": "address",
          "name": "_from",
          "type": "address"
        },
        {
          "internalType": "address",
          "name": "_to",
          "type": "address"
        },
        {
          "internalType": "uint256",
          "name": "_value",
          "type": "uint256"
        }
      ],
      "name": "transferFrom",
      "outputs": [
        {
          "internalType": "bool",
          "name": "success",
          "type": "bool"
        }
      ],
      "stateMutability": "nonpayable",
      "type": "function"
    },
    {
      "inputs": [
        {
          "internalType": "address",
          "name": "_from",
          "type": "address"
        }
      ],
      "name": "withdraw",
      "outputs": [
        {
          "internalType": "bool",
          "name": "success",
          "type": "bool"
        }
      ],
      "stateMutability": "nonpayable",
      "type": "function"
    }
  ],
  "bytecode": "0x60806040526040518060400160405280600c81526020017f52657761726420546f6b656e0000000000000000000000000000000000000000815250600090816200004a919062000379565b506040518060400160405280600381526020017f52454800000000000000000000000000000000000000000000000000000000008152506001908162000091919062000379565b5069d3c21bcecceda10000006002556012600355348015620000b257600080fd5b50600254600460003373ffffffffffffffffffffffffffffffffffffffff1673ffffffffffffffffffffffffffffffffffffffff1681526020019081526020016000208190555062000460565b600081519050919050565b7f4e487b7100000000000000000000000000000000000000000000000000000000600052604160045260246000fd5b7f4e487b7100000000000000000000000000000000000000000000000000000000600052602260045260246000fd5b600060028204905060018216806200018157607f821691505b60208210810362000197576200019662000139565b5b50919050565b60008190508160005260206000209050919050565b60006020601f8301049050919050565b600082821b905092915050565b600060088302620002017fffffffffffffffffffffffffffffffffffffffffffffffffffffffffffffffff82620001c2565b6200020d8683620001c2565b95508019841693508086168417925050509392505050565b6000819050919050565b6000819050919050565b60006200025a620002546200024e8462000225565b6200022f565b62000225565b9050919050565b6000819050919050565b620002768362000239565b6200028e620002858262000261565b848454620001cf565b825550505050565b600090565b620002a562000296565b620002b28184846200026b565b505050565b5b81811015620002da57620002ce6000826200029b565b600181019050620002b8565b5050565b601f8211156200032957620002f3816200019d565b620002fe84620001b2565b810160208510156200030e578190505b620003266200031d85620001b2565b830182620002b7565b50505b505050565b600082821c905092915050565b60006200034e600019846008026200032e565b1980831691505092915050565b60006200036983836200033b565b9150826002028217905092915050565b6200038482620000ff565b67ffffffffffffffff811115620003a0576200039f6200010a565b5b620003ac825462000168565b620003b9828285620002de565b600060209050601f831160018114620003f15760008415620003dc578287015190505b620003e885826200035b565b86555062000458565b601f19841662000401866200019d565b60005b828110156200042b5784890151825560018201915060208501945060208101905062000404565b868310156200044b578489015162000447601f8916826200033b565b8355505b6001600288020188555050505b505050505050565b610c1b80620004706000396000f3fe608060405234801561001057600080fd5b506004361061009e5760003560e01c806376809ce31161006657806376809ce31461018157806395d89b411461019f578063a9059cbb146101bd578063aa8c217c146101ed578063dd62ed3e1461020b5761009e565b806306fdde03146100a357806323b872dd146100c157806351cff8d9146100f157806370a082311461012157806375247a5814610151575b600080fd5b6100ab61023b565b6040516100b891906108b1565b60405180910390f35b6100db60048036038101906100d6919061096c565b6102c9565b6040516100e891906109da565b60405180910390f35b61010b600480360381019061010691906109f5565b6104b8565b60405161011891906109da565b60405180910390f35b61013b600480360381019061013691906109f5565b61054f565b6040516101489190610a31565b60405180910390f35b61016b60048036038101906101669190610a4c565b610567565b60405161017891906109da565b60405180910390f35b6101896105f0565b6040516101969190610a31565b60405180910390f35b6101a76105f6565b6040516101b491906108b1565b60405180910390f35b6101d760048036038101906101d29190610a4c565b610684565b6040516101e491906109da565b60405180910390f35b6101f56107ed565b6040516102029190610a31565b60405180910390f35b61022560048036038101906102209190610a8c565b6107f3565b6040516102329190610a31565b60405180910390f35b6000805461024890610afb565b80601f016020809104026020016040519081016040528092919081815260200182805461027490610afb565b80156102c15780601f10610296576101008083540402835291602001916102c1565b820191906000526020600020905b8154815290600101906020018083116102a457829003601f168201915b505050505081565b600081600460008673ffffffffffffffffffffffffffffffffffffffff1673ffffffffffffffffffffffffffffffffffffffff16815260200190815260200160002054101561031757600080fd5b81600560008673ffffffffffffffffffffffffffffffffffffffff1673ffffffffffffffffffffffffffffffffffffffff16815260200190815260200160002060003373ffffffffffffffffffffffffffffffffffffffff1673ffffffffffffffffffffffffffffffffffffffff1681526020019081526020016000205410156103a057600080fd5b81600460008673ffffffffffffffffffffffffffffffffffffffff1673ffffffffffffffffffffffffffffffffffffffff16815260200190815260200160002060008282546103ef9190610b5b565b9250508190555081600460008573ffffffffffffffffffffffffffffffffffffffff1673ffffffffffffffffffffffffffffffffffffffff16815260200190815260200160002060008282546104459190610bb1565b925050819055508273ffffffffffffffffffffffffffffffffffffffff168473ffffffffffffffffffffffffffffffffffffffff167fddf252ad1be2c89b69c2b068fc378daa952ba7f163c4a11628f55a4df523b3ef846040516104a99190610a31565b60405180910390a39392505050565b600080600460003373ffffffffffffffffffffffffffffffffffffffff1673ffffffffffffffffffffffffffffffffffffffff168152602001908152602001600020541161050557600080fd5b6000600460008473ffffffffffffffffffffffffffffffffffffffff1673ffffffffffffffffffffffffffffffffffffffff16815260200190815260200160002081905550919050565b60046020528060005260406000206000915090505481565b600081600560003373ffffffffffffffffffffffffffffffffffffffff1673ffffffffffffffffffffffffffffffffffffffff16815260200190815260200160002060008573ffffffffffffffffffffffffffffffffffffffff1673ffffffffffffffffffffffffffffffffffffffff1681526020019081526020016000208190555092915050565b60035481565b6001805461060390610afb565b80601f016020809104026020016040519081016040528092919081815260200182805461062f90610afb565b801561067c5780601f106106515761010080835404028352916020019161067c565b820191906000526020600020905b81548152906001019060200180831161065f57829003601f168201915b505050505081565b600081600460003373ffffffffffffffffffffffffffffffffffffffff1673ffffffffffffffffffffffffffffffffffffffff1681526020019081526020016000205410156106d257600080fd5b81600460003373ffffffffffffffffffffffffffffffffffffffff1673ffffffffffffffffffffffffffffffffffffffff16815260200190815260200160002060008282546107219190610bb1565b9250508190555081600460008573ffffffffffffffffffffffffffffffffffffffff1673ffffffffffffffffffffffffffffffffffffffff16815260200190815260200160002060008282546107779190610b5b565b925050819055508273ffffffffffffffffffffffffffffffffffffffff163373ffffffffffffffffffffffffffffffffffffffff167fddf252ad1be2c89b69c2b068fc378daa952ba7f163c4a11628f55a4df523b3ef846040516107db9190610a31565b60405180910390a36001905092915050565b60025481565b6005602052816000526040600020602052806000526040600020600091509150505481565b600081519050919050565b600082825260208201905092915050565b60005b83811015610852578082015181840152602081019050610837565b83811115610861576000848401525b50505050565b6000601f19601f8301169050919050565b600061088382610818565b61088d8185610823565b935061089d818560208601610834565b6108a681610867565b840191505092915050565b600060208201905081810360008301526108cb8184610878565b905092915050565b600080fd5b600073ffffffffffffffffffffffffffffffffffffffff82169050919050565b6000610903826108d8565b9050919050565b610913816108f8565b811461091e57600080fd5b50565b6000813590506109308161090a565b92915050565b6000819050919050565b61094981610936565b811461095457600080fd5b50565b60008135905061096681610940565b92915050565b600080600060608486031215610985576109846108d3565b5b600061099386828701610921565b93505060206109a486828701610921565b92505060406109b586828701610957565b9150509250925092565b60008115159050919050565b6109d4816109bf565b82525050565b60006020820190506109ef60008301846109cb565b92915050565b600060208284031215610a0b57610a0a6108d3565b5b6000610a1984828501610921565b91505092915050565b610a2b81610936565b82525050565b6000602082019050610a466000830184610a22565b92915050565b60008060408385031215610a6357610a626108d3565b5b6000610a7185828601610921565b9250506020610a8285828601610957565b9150509250929050565b60008060408385031215610aa357610aa26108d3565b5b6000610ab185828601610921565b9250506020610ac285828601610921565b9150509250929050565b7f4e487b7100000000000000000000000000000000000000000000000000000000600052602260045260246000fd5b60006002820490506001821680610b1357607f821691505b602082108103610b2657610b25610acc565b5b50919050565b7f4e487b7100000000000000000000000000000000000000000000000000000000600052601160045260246000fd5b6000610b6682610936565b9150610b7183610936565b9250827fffffffffffffffffffffffffffffffffffffffffffffffffffffffffffffffff03821115610ba657610ba5610b2c565b5b828201905092915050565b6000610bbc82610936565b9150610bc783610936565b925082821015610bda57610bd9610b2c565b5b82820390509291505056fea26469706673582212208f0121c1a1c2703920aab4b2a3af08f5858b039217db2bbc069cc09c21f2d14864736f6c634300080f0033",
  "immutableReferences": {},
  "source": "// SPDX-License-Identifier: MIT\r\npragma solidity >=0.4.22 <0.9.0;\r\n\r\ncontract Reward {\r\n    string public name = \"Reward Token\" ;\r\n    string public symbol = \"REH\" ;\r\n    uint public amount = 1000000000000000000000000 ;\r\n    uint public decimal = 18;\r\n\r\n\r\nevent Transfer (\r\n    address indexed _from,\r\n    address indexed _to,\r\n    uint value\r\n);\r\n\r\nevent Approve (\r\n    address _owner,\r\n    address _spender,\r\n    uint _value\r\n);\r\n\r\nmapping(address => uint) public balanceOf;\r\nmapping (address => mapping(address => uint)) public allowance;\r\n\r\nconstructor () {\r\n    balanceOf[msg.sender] = amount;\r\n}\r\n\r\nfunction transfer(address _to, uint _value) public returns (bool success) {\r\n    require(balanceOf[msg.sender]>= _value);\r\n    balanceOf[msg.sender] -= _value;\r\n    balanceOf[_to] += _value;\r\n    emit Transfer(msg.sender, _to, _value);\r\n    return true;\r\n}\r\n\r\nfunction approval (address _from, uint _value) public returns (bool success) {\r\n    allowance[msg.sender][_from] = _value;\r\n    return success;\r\n}\r\n\r\nfunction transferFrom (address _from, address _to, uint _value) public returns (bool success) {\r\n    require(balanceOf[_from] >= _value);\r\n    require(allowance[_from][msg.sender] >= _value);\r\n    balanceOf[_from] += _value;\r\n    balanceOf[_to] -= _value;\r\n    emit Transfer(_from, _to, _value);\r\n    return success;\r\n}\r\n\r\nfunction withdraw (address _from) public returns (bool success) {\r\n    require(balanceOf[msg.sender] > 0);\r\n    balanceOf[_from] = 0;\r\n    return success;\r\n}\r\n\r\n}",
  "sourcePath": "C:\\Users\\User\\Desktop\\New folder (3)\\contracts\\Reward.sol",
  "compiler": {
    "name": "solc",
    "version": "0.8.15+commit.e14f2714.Emscripten.clang"
  },
  "schemaVersion": "3.4.8",
  "updatedAt": "2022-08-16T13:55:38.114Z",
  "networkType": "ethereum",
  "devdoc": {
    "kind": "dev",
    "methods": {},
    "version": 1
  },
  "userdoc": {
    "kind": "user",
    "methods": {},
    "version": 1
  }
}