{
  "contractName": "Tether",
  "abi": [
    {
      "inputs": [],
      "stateMutability": "nonpayable",
      "type": "constructor"
    },
    {
      "anonymous": false,
      "inputs": [
        {
          "indexed": false,
          "internalType": "address",
          "name": "_owner",
          "type": "address"
        },
        {
          "indexed": false,
          "internalType": "address",
          "name": "_spender",
          "type": "address"
        },
        {
          "indexed": false,
          "internalType": "uint256",
          "name": "_value",
          "type": "uint256"
        }
      ],
      "name": "Approve",
      "type": "event"
    },
    {
      "anonymous": false,
      "inputs": [
        {
          "indexed": true,
          "internalType": "address",
          "name": "_from",
          "type": "address"
        },
        {
          "indexed": true,
          "internalType": "address",
          "name": "_to",
          "type": "address"
        },
        {
          "indexed": false,
          "internalType": "uint256",
          "name": "value",
          "type": "uint256"
        }
      ],
      "name": "Transfer",
      "type": "event"
    },
    {
      "inputs": [
        {
          "internalType": "address",
          "name": "",
          "type": "address"
        },
        {
          "internalType": "address",
          "name": "",
          "type": "address"
        }
      ],
      "name": "allowance",
      "outputs": [
        {
          "internalType": "uint256",
          "name": "",
          "type": "uint256"
        }
      ],
      "stateMutability": "view",
      "type": "function",
      "constant": true
    },
    {
      "inputs": [
        {
          "internalType": "address",
          "name": "",
          "type": "address"
        }
      ],
      "name": "allowance_debt",
      "outputs": [
        {
          "internalType": "uint256",
          "name": "",
          "type": "uint256"
        }
      ],
      "stateMutability": "view",
      "type": "function",
      "constant": true
    },
    {
      "inputs": [],
      "name": "amount",
      "outputs": [
        {
          "internalType": "uint256",
          "name": "",
          "type": "uint256"
        }
      ],
      "stateMutability": "view",
      "type": "function",
      "constant": true
    },
    {
      "inputs": [
        {
          "internalType": "address",
          "name": "",
          "type": "address"
        }
      ],
      "name": "balanceOf",
      "outputs": [
        {
          "internalType": "uint256",
          "name": "",
          "type": "uint256"
        }
      ],
      "stateMutability": "view",
      "type": "function",
      "constant": true
    },
    {
      "inputs": [],
      "name": "decimal",
      "outputs": [
        {
          "internalType": "uint256",
          "name": "",
          "type": "uint256"
        }
      ],
      "stateMutability": "view",
      "type": "function",
      "constant": true
    },
    {
      "inputs": [],
      "name": "name",
      "outputs": [
        {
          "internalType": "string",
          "name": "",
          "type": "string"
        }
      ],
      "stateMutability": "view",
      "type": "function",
      "constant": true
    },
    {
      "inputs": [],
      "name": "symbol",
      "outputs": [
        {
          "internalType": "string",
          "name": "",
          "type": "string"
        }
      ],
      "stateMutability": "view",
      "type": "function",
      "constant": true
    },
    {
      "inputs": [
        {
          "internalType": "address",
          "name": "_to",
          "type": "address"
        },
        {
          "internalType": "uint256",
          "name": "_value",
          "type": "uint256"
        }
      ],
      "name": "transfer",
      "outputs": [
        {
          "internalType": "bool",
          "name": "success",
          "type": "bool"
        }
      ],
      "stateMutability": "nonpayable",
      "type": "function"
    },
    {
      "inputs": [
        {
          "internalType": "address",
          "name": "_to",
          "type": "address"
        },
        {
          "internalType": "uint256",
          "name": "_value",
          "type": "uint256"
        }
      ],
      "name": "approval",
      "outputs": [
        {
          "internalType": "bool",
          "name": "success",
          "type": "bool"
        }
      ],
      "stateMutability": "nonpayable",
      "type": "function"
    },
    {
      "inputs": [
        {
          "internalType": "address",
          "name": "_to",
          "type": "address"
        },
        {
          "internalType": "uint256",
          "name": "_value",
          "type": "uint256"
        }
      ],
      "name": "approval_debt",
      "outputs": [
        {
          "internalType": "bool",
          "name": "success",
          "type": "bool"
        }
      ],
      "stateMutability": "nonpayable",
      "type": "function"
    },
    {
      "inputs": [
        {
          "internalType": "address",
          "name": "_from",
          "type": "address"
        },
        {
          "internalType": "address",
          "name": "_to",
          "type": "address"
        },
        {
          "internalType": "uint256",
          "name": "_value",
          "type": "uint256"
        }
      ],
      "name": "transferFrom",
      "outputs": [
        {
          "internalType": "bool",
          "name": "success",
          "type": "bool"
        }
      ],
      "stateMutability": "nonpayable",
      "type": "function"
    },
    {
      "inputs": [
        {
          "internalType": "address",
          "name": "_from",
          "type": "address"
        },
        {
          "internalType": "address",
          "name": "_to",
          "type": "address"
        },
        {
          "internalType": "uint256",
          "name": "_value",
          "type": "uint256"
        }
      ],
      "name": "transferFrom_debt",
      "outputs": [
        {
          "internalType": "bool",
          "name": "success",
          "type": "bool"
        }
      ],
      "stateMutability": "nonpayable",
      "type": "function"
    }
  ],
  "bytecode": "0x60806040526040518060400160405280600c81526020017f54657468657220546f6b656e0000000000000000000000000000000000000000815250600090816200004a919062000379565b506040518060400160405280600381526020017f54454800000000000000000000000000000000000000000000000000000000008152506001908162000091919062000379565b5069d3c21bcecceda10000006002556012600355348015620000b257600080fd5b50600254600460003373ffffffffffffffffffffffffffffffffffffffff1673ffffffffffffffffffffffffffffffffffffffff1681526020019081526020016000208190555062000460565b600081519050919050565b7f4e487b7100000000000000000000000000000000000000000000000000000000600052604160045260246000fd5b7f4e487b7100000000000000000000000000000000000000000000000000000000600052602260045260246000fd5b600060028204905060018216806200018157607f821691505b60208210810362000197576200019662000139565b5b50919050565b60008190508160005260206000209050919050565b60006020601f8301049050919050565b600082821b905092915050565b600060088302620002017fffffffffffffffffffffffffffffffffffffffffffffffffffffffffffffffff82620001c2565b6200020d8683620001c2565b95508019841693508086168417925050509392505050565b6000819050919050565b6000819050919050565b60006200025a620002546200024e8462000225565b6200022f565b62000225565b9050919050565b6000819050919050565b620002768362000239565b6200028e620002858262000261565b848454620001cf565b825550505050565b600090565b620002a562000296565b620002b28184846200026b565b505050565b5b81811015620002da57620002ce6000826200029b565b600181019050620002b8565b5050565b601f8211156200032957620002f3816200019d565b620002fe84620001b2565b810160208510156200030e578190505b620003266200031d85620001b2565b830182620002b7565b50505b505050565b600082821c905092915050565b60006200034e600019846008026200032e565b1980831691505092915050565b60006200036983836200033b565b9150826002028217905092915050565b6200038482620000ff565b67ffffffffffffffff811115620003a0576200039f6200010a565b5b620003ac825462000168565b620003b9828285620002de565b600060209050601f831160018114620003f15760008415620003dc578287015190505b620003e885826200035b565b86555062000458565b601f19841662000401866200019d565b60005b828110156200042b5784890151825560018201915060208501945060208101905062000404565b868310156200044b578489015162000447601f8916826200033b565b8355505b6001600288020188555050505b505050505050565b610dc480620004706000396000f3fe608060405234801561001057600080fd5b50600436106100b45760003560e01c80638636f641116100715780638636f641146101b557806395d89b41146101e5578063a9059cbb14610203578063aa8c217c14610233578063dd62ed3e14610251578063e3cd4ff714610281576100b4565b806306fdde03146100b957806323b872dd146100d75780634410a5e71461010757806370a082311461013757806375247a581461016757806376809ce314610197575b600080fd5b6100c16102b1565b6040516100ce9190610a5a565b60405180910390f35b6100f160048036038101906100ec9190610b15565b61033f565b6040516100fe9190610b83565b60405180910390f35b610121600480360381019061011c9190610b9e565b61052e565b60405161012e9190610b83565b60405180910390f35b610151600480360381019061014c9190610bde565b61057a565b60405161015e9190610c1a565b60405180910390f35b610181600480360381019061017c9190610b9e565b610592565b60405161018e9190610b83565b60405180910390f35b61019f61061b565b6040516101ac9190610c1a565b60405180910390f35b6101cf60048036038101906101ca9190610b15565b610621565b6040516101dc9190610b83565b60405180910390f35b6101ed610787565b6040516101fa9190610a5a565b60405180910390f35b61021d60048036038101906102189190610b9e565b610815565b60405161022a9190610b83565b60405180910390f35b61023b61097e565b6040516102489190610c1a565b60405180910390f35b61026b60048036038101906102669190610c35565b610984565b6040516102789190610c1a565b60405180910390f35b61029b60048036038101906102969190610bde565b6109a9565b6040516102a89190610c1a565b60405180910390f35b600080546102be90610ca4565b80601f01602080910402602001604051908101604052809291908181526020018280546102ea90610ca4565b80156103375780601f1061030c57610100808354040283529160200191610337565b820191906000526020600020905b81548152906001019060200180831161031a57829003601f168201915b505050505081565b600081600460008673ffffffffffffffffffffffffffffffffffffffff1673ffffffffffffffffffffffffffffffffffffffff16815260200190815260200160002054101561038d57600080fd5b81600560008673ffffffffffffffffffffffffffffffffffffffff1673ffffffffffffffffffffffffffffffffffffffff16815260200190815260200160002060003373ffffffffffffffffffffffffffffffffffffffff1673ffffffffffffffffffffffffffffffffffffffff16815260200190815260200160002054101561041657600080fd5b81600460008673ffffffffffffffffffffffffffffffffffffffff1673ffffffffffffffffffffffffffffffffffffffff16815260200190815260200160002060008282546104659190610d04565b9250508190555081600460008573ffffffffffffffffffffffffffffffffffffffff1673ffffffffffffffffffffffffffffffffffffffff16815260200190815260200160002060008282546104bb9190610d38565b925050819055508273ffffffffffffffffffffffffffffffffffffffff168473ffffffffffffffffffffffffffffffffffffffff167fddf252ad1be2c89b69c2b068fc378daa952ba7f163c4a11628f55a4df523b3ef8460405161051f9190610c1a565b60405180910390a39392505050565b600081600660008573ffffffffffffffffffffffffffffffffffffffff1673ffffffffffffffffffffffffffffffffffffffff1681526020019081526020016000208190555092915050565b60046020528060005260406000206000915090505481565b600081600560003373ffffffffffffffffffffffffffffffffffffffff1673ffffffffffffffffffffffffffffffffffffffff16815260200190815260200160002060008573ffffffffffffffffffffffffffffffffffffffff1673ffffffffffffffffffffffffffffffffffffffff1681526020019081526020016000208190555092915050565b60035481565b600081600660008573ffffffffffffffffffffffffffffffffffffffff1673ffffffffffffffffffffffffffffffffffffffff16815260200190815260200160002054101561066f57600080fd5b81600460008673ffffffffffffffffffffffffffffffffffffffff1673ffffffffffffffffffffffffffffffffffffffff16815260200190815260200160002060008282546106be9190610d04565b9250508190555081600460008573ffffffffffffffffffffffffffffffffffffffff1673ffffffffffffffffffffffffffffffffffffffff16815260200190815260200160002060008282546107149190610d38565b925050819055508273ffffffffffffffffffffffffffffffffffffffff168473ffffffffffffffffffffffffffffffffffffffff167fddf252ad1be2c89b69c2b068fc378daa952ba7f163c4a11628f55a4df523b3ef846040516107789190610c1a565b60405180910390a39392505050565b6001805461079490610ca4565b80601f01602080910402602001604051908101604052809291908181526020018280546107c090610ca4565b801561080d5780601f106107e25761010080835404028352916020019161080d565b820191906000526020600020905b8154815290600101906020018083116107f057829003601f168201915b505050505081565b600081600460003373ffffffffffffffffffffffffffffffffffffffff1673ffffffffffffffffffffffffffffffffffffffff16815260200190815260200160002054101561086357600080fd5b81600460003373ffffffffffffffffffffffffffffffffffffffff1673ffffffffffffffffffffffffffffffffffffffff16815260200190815260200160002060008282546108b29190610d04565b9250508190555081600460008573ffffffffffffffffffffffffffffffffffffffff1673ffffffffffffffffffffffffffffffffffffffff16815260200190815260200160002060008282546109089190610d38565b925050819055508273ffffffffffffffffffffffffffffffffffffffff163373ffffffffffffffffffffffffffffffffffffffff167fddf252ad1be2c89b69c2b068fc378daa952ba7f163c4a11628f55a4df523b3ef8460405161096c9190610c1a565b60405180910390a36001905092915050565b60025481565b6005602052816000526040600020602052806000526040600020600091509150505481565b60066020528060005260406000206000915090505481565b600081519050919050565b600082825260208201905092915050565b60005b838110156109fb5780820151818401526020810190506109e0565b83811115610a0a576000848401525b50505050565b6000601f19601f8301169050919050565b6000610a2c826109c1565b610a3681856109cc565b9350610a468185602086016109dd565b610a4f81610a10565b840191505092915050565b60006020820190508181036000830152610a748184610a21565b905092915050565b600080fd5b600073ffffffffffffffffffffffffffffffffffffffff82169050919050565b6000610aac82610a81565b9050919050565b610abc81610aa1565b8114610ac757600080fd5b50565b600081359050610ad981610ab3565b92915050565b6000819050919050565b610af281610adf565b8114610afd57600080fd5b50565b600081359050610b0f81610ae9565b92915050565b600080600060608486031215610b2e57610b2d610a7c565b5b6000610b3c86828701610aca565b9350506020610b4d86828701610aca565b9250506040610b5e86828701610b00565b9150509250925092565b60008115159050919050565b610b7d81610b68565b82525050565b6000602082019050610b986000830184610b74565b92915050565b60008060408385031215610bb557610bb4610a7c565b5b6000610bc385828601610aca565b9250506020610bd485828601610b00565b9150509250929050565b600060208284031215610bf457610bf3610a7c565b5b6000610c0284828501610aca565b91505092915050565b610c1481610adf565b82525050565b6000602082019050610c2f6000830184610c0b565b92915050565b60008060408385031215610c4c57610c4b610a7c565b5b6000610c5a85828601610aca565b9250506020610c6b85828601610aca565b9150509250929050565b7f4e487b7100000000000000000000000000000000000000000000000000000000600052602260045260246000fd5b60006002820490506001821680610cbc57607f821691505b602082108103610ccf57610cce610c75565b5b50919050565b7f4e487b7100000000000000000000000000000000000000000000000000000000600052601160045260246000fd5b6000610d0f82610adf565b9150610d1a83610adf565b925082821015610d2d57610d2c610cd5565b5b828203905092915050565b6000610d4382610adf565b9150610d4e83610adf565b9250827fffffffffffffffffffffffffffffffffffffffffffffffffffffffffffffffff03821115610d8357610d82610cd5565b5b82820190509291505056fea2646970667358221220db1e49af180639ec366bb2e9efa251f134dd67d452b07cb3585ed0a318b884eb64736f6c634300080f0033",
  "immutableReferences": {},
  "source": "// SPDX-License-Identifier: MIT\r\npragma solidity >=0.4.22 <0.9.0;\r\n\r\ncontract Tether {\r\n    string public name = \"Tether Token\" ;\r\n    string public symbol = \"TEH\" ;\r\n    uint public amount = 1000000000000000000000000;\r\n    uint public decimal = 18;\r\n\r\n\r\nevent Transfer (\r\n    address indexed _from,\r\n    address indexed _to,\r\n    uint value\r\n);\r\n\r\nevent Approve (\r\n    address _owner,\r\n    address _spender,\r\n    uint _value\r\n);\r\n\r\nmapping(address => uint) public balanceOf;\r\nmapping (address => mapping(address => uint)) public allowance;\r\nmapping (address =>  uint) public allowance_debt;\r\n\r\nconstructor () {\r\n    balanceOf[msg.sender] = amount;\r\n}\r\n\r\nfunction transfer(address _to, uint _value) public returns (bool success) {\r\n    require(balanceOf[msg.sender]>= _value);\r\n    balanceOf[msg.sender] -= _value;\r\n    balanceOf[_to] += _value;\r\n    emit Transfer(msg.sender, _to, _value);\r\n    return true;\r\n}\r\n\r\nfunction approval (address _to, uint _value) public returns (bool success) {\r\n    allowance[msg.sender][_to] = _value;\r\n    return success;\r\n}\r\n\r\nfunction approval_debt(address _to, uint _value) public returns (bool success) {\r\n    allowance_debt[_to] = _value;\r\n    return success;\r\n}\r\n\r\nfunction transferFrom (address _from, address _to, uint _value) public returns (bool success) {\r\n    require(balanceOf[_from] >= _value);\r\n    require(allowance[_from][msg.sender] >= _value);\r\n    balanceOf[_from] -= _value;\r\n    balanceOf[_to] += _value;\r\n    emit Transfer(_from, _to, _value);\r\n    return success;\r\n}\r\n\r\nfunction transferFrom_debt(address _from, address _to, uint _value) public returns (bool success) {\r\n    require(allowance_debt[_to] >= _value);\r\n    balanceOf[_from] -= _value;\r\n    balanceOf[_to] += _value;\r\n    emit Transfer(_from, _to, _value);\r\n    return success;\r\n}\r\n\r\n}",
  "sourcePath": "C:\\Users\\User\\Desktop\\New folder (3)\\contracts\\Tether.sol",
  "compiler": {
    "name": "solc",
    "version": "0.8.15+commit.e14f2714.Emscripten.clang"
  },
  "schemaVersion": "3.4.8",
  "updatedAt": "2022-08-16T13:55:38.092Z",
  "networkType": "ethereum",
  "devdoc": {
    "kind": "dev",
    "methods": {},
    "version": 1
  },
  "userdoc": {
    "kind": "user",
    "methods": {},
    "version": 1
  }
}